:100000000EC01DC01CC01BC01AC019C018C017C02C
:1000100016C015C014C013C012C011C010C01124E6
:100020001FBECFE5D2E0DEBFCDBF20E0A0E6B0E04E
:1000300001C01D92A93AB207E1F718D09FC1E0CFE5
:1000400042E050E06EEB7BE180E690E099D1809158
:10005000600090916100892B41F017BAF89413BEAB
:10006000E0916000F091610009940895CF93DF93CF
:1000700000D000D0CDB7DEB7B89ABB9882E083BF7E
:1000800016B3187003E08AE0F82E80E197E2EE24C0
:10009000E39422B7253668F012BE019751F488B375
:1000A0008E2588BBFA94F11002C0C098C9DF80E1A8
:1000B00097E226B3412F50E0287030E042175307F3
:1000C00019F016B3187001500111E3CFC09A00E87F
:1000D0001BE1DD24D394EE24EA94FF24F3941C82E4
:1000E0001B821C821B8226B3287030E086B3887086
:1000F00090E028173907D1F386B3282F287012BE55
:1001000060E070E0822F90E046B3487050E08417C2
:100110009507D1F332B712BE86B3282F2870683006
:10012000710530F08B819C81830F911D9C838B83A3
:100130006F5F7F4F6031710529F78B819C8163E090
:1001400070E027D1A5E096958795AA95E1F79A8367
:10015000898382B749815A8190E084179507C8F353
:10016000822F90E026B3287030E08217930799F42D
:1001700026B3287030E082179307D1F386B3282F77
:10018000287012BE82B749815A8190E08417950782
:10019000C8F312BEE5CF86B3887028E332E068E08A
:1001A00070E090E046B3487050E084179507D1F3B3
:1001B00012BE46B3487082B7E981FA8190E08E178B
:1001C0009F07C8F386B38870E72FF0E0EE59FF4F22
:1001D0009081990F481391609083615011F47F5F73
:1001E00068E021503109E9F680916200833009F41A
:1001F00057C0843009F49BC0823009F0BCC08091A4
:10020000640090E0982F882720916300820F911D51
:10021000F6E0880F991FFA95E1F7803C2BE19207F1
:1002200008F0A9C0F89423E0FC0120935700E8955A
:1002300007B600FCFDCF40E050E0FA01EE59FF4F59
:100240006781208530E0322F2227260F311D00974D
:1002500059F44115510541F42F5F3F4B3093610034
:10026000209360002FED3DECFA01E80FF91F090122
:10027000D0925700E895112407B600FCFDCF4E5FE1
:100280005F4F40345105C9F625E0FC01209357002B
:10029000E89507B600FCFDCF88B38D2588BB6BC001
:1002A00017BAF89413BE80E89BE1A0E6B0E022E024
:1002B00030E08E3BFBE19F0751F42115310539F009
:1002C0004D915C91119722503109129603C0FC01A7
:1002D000459154916FB7F894FC010A01D0925700F0
:1002E000E89511246FBF0296803CFBE19F0709F758
:1002F000E199FECF8FB7F89493E0F80190935700FF
:10030000E89507B600FCFDCF95E0F8019093570003
:10031000E89507B600FCFDCF91E190935700E89572
:100320008FBFE0916000F0916100099524C0309189
:100330006500209163002295220F220F207C822FDE
:1003400090E0E9E6F0E0482F421B431790F441911A
:10035000E199FECF1CBA811552E095071CF49FBBB2
:100360008EBB02C0FFBAEEBA4DBBE29AE19A01968B
:10037000EACFC09865DE10926200B1CEF8941AC040
:10038000FB01DC0102C005900D9241505040D8F7AE
:1003900008950024552704C0080E591F880F991F7F
:1003A000009729F076956795B8F37105B9F7802D18
:0803B000952F0895F894FFCF8A
:00000001FF
